:100000000C9446000C9465000C9465000C946500FB
:100010000C9465000C9465000C9465000C946500CC
:100020000C9465000C9465000C9465000C946500BC
:100030000C9465000C94DE000C9465000C94650033
:100040000C9465000C9465000C9465000C9465009C
:100050000C9465000C9465000C9465000C9465008C
:100060000C9465000C9465000C9465000C9465007C
:100070000C9465000C9465000C9465000C9465006C
:100080000C9465000C9465000C94650011241FBE4F
:10009000CFEFD0E4DEBFCDBF11E0A0E0B1E0E0E7FC
:1000A000F6E000E00BBF02C007900D92A231B1074D
:1000B000D9F721E0A2E1B1E001C01D92A132B2075F
:1000C000E1F70E94AE020C9436030C940000CF932B
:1000D000DF9300D01F92CDB7DEB789837B836A831D
:1000E00089818A3031F48A819B81BC018DE00E9434
:1000F000670080EC90E0FC018081882F90E08072A6
:100100009927892BB1F386EC90E02981FC012083AB
:1001100080E090E00F900F900F90DF91CF910895C5
:10012000CF93DF93CDB7DEB781E890E02BE0FC0101
:10013000208388E890E02DE730E0FC0131832083C4
:100140008FE690E022E0FC01208384E890E0FC014F
:100150001182108280910E0190910F01A0911001E7
:10016000B09111018093130190931401A093150194
:10017000B09316018FE590E02FE530E0F901208182
:100180002068FC0120830000DF91CF910895CF9378
:10019000DF93CDB7DEB781E890E0FC01108200006C
:1001A000DF91CF910895CF93DF93CDB7DEB781E094
:1001B000809312010000DF91CF9108951F920F925A
:1001C00000905F000F92112400905B000F922F931C
:1001D0003F934F935F936F937F938F939F93AF93CF
:1001E000BF93EF93FF93CF93DF93CDB7DEB78091AB
:1001F000130190911401A0911501B091160101977E
:10020000A109B1098093130190931401A0931501E2
:10021000B09316018091130190911401A0911501E2
:10022000B0911601892B8A2B8B2B91F40E94D3005D
:1002300080910E0190910F01A0911001B0911101D8
:100240008093130190931401A0931501B0931601AC
:100250000000DF91CF91FF91EF91BF91AF919F91FE
:100260008F917F916F915F914F913F912F910F905F
:1002700000925B000F9000925F000F901F90189506
:10028000CF93DF9300D000D0CDB7DEB769837A83F8
:100290008B839C8389819A81AB81BC8180930E0181
:1002A00090930F01A0931001B093110180910E0162
:1002B00090910F01A0911001B09111018093130151
:1002C00090931401A0931501B093160100000F90B4
:1002D0000F900F900F90DF91CF910895CF93DF9300
:1002E000CDB7DEB780911A0190911B018130910545
:1002F00069F08130910518F0029779F013C081E020
:1003000090E090931B0180931A010CC082E090E072
:1003100090931B0180931A0105C010921B0110924B
:100320001A0100000000DF91CF910895CF93DF9371
:10033000CDB7DEB780911F0190912001009719F091
:10034000019741F00CC081E090E0909320018093F0
:100350001F0105C01092200110921F010000000033
:10036000DF91CF910895CF93DF93CDB7DEB7809122
:10037000170190911801009719F0019741F00CC0F6
:1003800081E090E0909318018093170105C01092CE
:1003900018011092170100000000DF91CF9108951D
:1003A000CF93DF931F92CDB7DEB7898380911C0175
:1003B00090911D018230910579F18330910528F4E7
:1003C000009751F0019709F160C083309105E9F180
:1003D000049709F441C059C08981813039F481E022
:1003E00090E090931D0180931C014FC08981823061
:1003F00039F483E090E090931D0180931C0145C087
:1004000010921D0110921C0140C082E090E0909378
:100410001D0180931C0139C08981813039F482E04B
:1004200090E090931D0180931C012FC08981823040
:1004300039F483E090E090931D0180931C0125C066
:1004400010921D0110921C0120C084E090E0909356
:100450001D0180931C0119C08981813039F481E02C
:1004600090E090931D0180931C010EC08981823021
:1004700039F484E090E090931D0180931C0104C046
:1004800010921D0110921C01000080911C0190919E
:100490001D018130910519F0039759F017C0809123
:1004A00019018F3F81F0809119018F5F80931901AD
:1004B0000AC080911901823040F080911901815069
:1004C0008093190102C0000001C0000000000F90DD
:1004D000DF91CF910895CF93DF93CDB7DEB7109220
:1004E0001E0180911A0190911B018130910561F0EC
:1004F0008130910518F0029769F012C080911E01B9
:10050000816080931E010CC080911E0182608093E7
:100510001E0106C080911E01846080931E010000B0
:1005200080911F0190912001892B31F480911E014F
:10053000886080931E0101C0000080911701909196
:100540001801892B31F480911E01806180931E0176
:1005500001C000000000DF91CF910895CF93DF9399
:10056000CDB7DEB727970FB6F894DEBF0FBECDBF6D
:1005700081E290E0FC01108282E290E02FEFFC012A
:10058000208384E290E02FEFFC01208385E290E05D
:10059000FC01108261E070E080E090E00E94400188
:1005A0000E94900010921E0182E080931901109227
:1005B0001B0110921A018CE291E09A83898388EEE4
:1005C00093E09C838B8382E090E09E838D831F82E7
:1005D00080E290E0FC01808180958F838F810E9472
:1005E000D00189819A818C32914021F40E946E0160
:1005F0001A8219828B819C81883E934021F40E944B
:1006000096011C821B828F81882F90E0847099272D
:10061000892B91F080911901282F30E08D819E81E6
:100620008217930720F00E94B3011E821D828D81E4
:100630009E8101969E838D830E946B0289819A819F
:1006400001969A8389838B819C8101969C838B83FD
:1006500085E290E020911E01FC0120830000809142
:1006600012018823E1F310921201B2CFF894FFCF68
:100670000000000200000000670000000000010010
:02068000000078
:00000001FF
