:100000000C9446000C9465000C9465000C946500FB
:100010000C9465000C9465000C9465000C946500CC
:100020000C9465000C9465000C9465000C946500BC
:100030000C9465000C94DE000C9465000C94650033
:100040000C9465000C9465000C9465000C9465009C
:100050000C9465000C9465000C9465000C9465008C
:100060000C9465000C9465000C9465000C9465007C
:100070000C9465000C9465000C9465000C9465006C
:100080000C9465000C9465000C94650011241FBE4F
:10009000CFEFD0E4DEBFCDBF11E0A0E0B1E0E0E8FB
:1000A000F4E000E00BBF02C007900D92A231B1074F
:1000B000D9F721E0A2E1B1E001C01D92AC31B20755
:1000C000E1F70E94E9010C943E020C940000CF93EA
:1000D000DF9300D01F92CDB7DEB789837B836A831D
:1000E00089818A3031F48A819B81BC018DE00E9434
:1000F000670080EC90E0FC018081882F90E08072A6
:100100009927892BB1F386EC90E02981FC012083AB
:1001100080E090E00F900F900F90DF91CF910895C5
:10012000CF93DF93CDB7DEB781E890E02BE0FC0101
:10013000208388E890E02DE730E0FC0131832083C4
:100140008FE690E022E0FC01208384E890E0FC014F
:100150001182108280910E0190910F01A0911001E7
:10016000B09111018093130190931401A093150194
:10017000B09316018FE590E02FE530E0F901208182
:100180002068FC0120830000DF91CF910895CF9378
:10019000DF93CDB7DEB781E890E0FC01108200006C
:1001A000DF91CF910895CF93DF93CDB7DEB781E094
:1001B000809312010000DF91CF9108951F920F925A
:1001C00000905F000F92112400905B000F922F931C
:1001D0003F934F935F936F937F938F939F93AF93CF
:1001E000BF93EF93FF93CF93DF93CDB7DEB78091AB
:1001F000130190911401A0911501B091160101977E
:10020000A109B1098093130190931401A0931501E2
:10021000B09316018091130190911401A0911501E2
:10022000B0911601892B8A2B8B2B91F40E94D3005D
:1002300080910E0190910F01A0911001B0911101D8
:100240008093130190931401A0931501B0931601AC
:100250000000DF91CF91FF91EF91BF91AF919F91FE
:100260008F917F916F915F914F913F912F910F905F
:1002700000925B000F9000925F000F901F90189506
:10028000CF93DF9300D000D0CDB7DEB769837A83F8
:100290008B839C8389819A81AB81BC8180930E0181
:1002A00090930F01A0931001B093110180910E0162
:1002B00090910F01A0911001B09111018093130151
:1002C00090931401A0931501B093160100000F90B4
:1002D0000F900F900F90DF91CF910895CF93DF9300
:1002E000CDB7DEB78091170190911801813091054B
:1002F00069F08130910518F0029779F013C081E020
:1003000090E090931801809317010CC082E090E078
:10031000909318018093170105C010921801109254
:10032000170100000000DF91CF910895CF93DF9374
:10033000CDB7DEB780911A0190911B01009719F09B
:10034000019741F00CC081E090E090931B018093F5
:100350001A0105C010921B0110921A010000000042
:10036000DF91CF910895CF93DF93CDB7DEB7109291
:10037000190180911701909118018130910561F068
:100380008130910518F0029769F012C0809119012F
:100390008160809319010CC0809119018260809363
:1003A000190106C080911901846080931901000031
:1003B00080911A0190911B01892B31F480911901D0
:1003C00088608093190101C000000000DF91CF9187
:1003D0000895CF93DF9300D000D0CDB7DEB784E28D
:1003E00090E02FEFFC01208385E290E0FC01108279
:1003F00061E070E080E090E00E9440010E94900087
:1004000010921901109218011092170110921B01FD
:1004100010921A018CE291E09A83898388EE93E02E
:100420009C838B8389819A818C32914021F40E9434
:100430006E011A8219828B819C81883E934021F43F
:100440000E9496011C821B820E94B30189819A81BD
:1004500001969A8389838B819C8101969C838B83EF
:1004600085E290E020911901FC0120830000809139
:1004700012018823E1F310921201D4CFF894FFCF38
:100480000000000200000000670000000000010002
:0204900000006A
:00000001FF
